:020000040800F2
:10000000D8180020FD010008E51600082716000892
:10001000E116000809030008011C000800000000A8
:100020000000000000000000000000006501000862
:100030000D03000800000000A9010008A91700082E
:10004000170200081702000817020008170200082C
:10005000170200081702000817020008170200081C
:10006000170200081702000817020008170200080C
:1000700017020008170200081702000817020008FC
:1000800017020008170200081702000817020008EC
:1000900017020008170200081702000817020008DC
:1000A00017020008170200081702000817020008CC
:1000B00017020008170200081702000817020008BC
:1000C00017020008170200081702000817020008AC
:1000D00017020008F11B00081702000817020008A9
:1000E00017020008170200081702000800000000AD
:1000F0000000000000000000000000000000000000
:1001000000000000000000001702000817020008AD
:10011000170200081702000817020008170200085B
:10012000170200081702000817020008170200084B
:10013000170200081702000817020008170200083B
:10014000170200081702000817020008170200082B
:10015000DFF80CD000F0C6F800480047351D000855
:10016000D8180020224B19680868B0E8F00F80F317
:100170000988BFF36F8F4FF0000080F311884EF0B5
:100180000D0E70470000000006480068006880F30C
:10019000088862B661B6BFF34F8FBFF36F8F00DF81
:1001A00000BF00BF08ED00E0EFF30980BFF36F8FE1
:1001B0000F4B1A6820E9F00F106008B54FF050009F
:1001C00080F31188BFF34F8FBFF36F8F02F08EFA69
:1001D0004FF0000080F31188BDE8084019680868F6
:1001E000B0E8F00F80F30988BFF36F8F704700BF4E
:1001F0004C000020EFF30580704700000648804760
:1002000006480047FEE7FEE7FEE7FEE7FEE7FEE7FB
:10021000FEE7FEE7FEE7FEE761180008510100086F
:100220002DE9F05F0546002092469B46884606462B
:10023000814640241BE0284641464746224600F0BE
:1002400020F853465A46C01A914110D31146184619
:10025000224600F038F82D1A67EB01084F46224677
:100260000120002100F02FF817EB00094E41201E5D
:10027000A4F10104DFDC484631462A464346BDE886
:10028000F09F202A04DB203A21FA02F00021704777
:1002900021FA02F3D040C2F12002914008431946EE
:1002A000704740EA01039B0703D009E008C9121F09
:1002B00008C0042AFAD203E011F8013B00F8013B20
:1002C000521EF9D27047202A04DB203A00FA02F1CC
:1002D000002070479140C2F1200320FA03F3194334
:1002E00090407047064C074D06E0E06840F001037F
:1002F00094E8070098471034AC42F6D3FFF72CFF80
:10030000742B0008942B000800BFFEE77047000024
:1003100070B50446002594F82100022803D004207B
:10032000A0630125C1E02068006820F00E0021686C
:1003300008602068006820F00100216808605C49BE
:100340002068884252D95A4978392068884201D1B8
:10035000012047E0564964392068884201D11020C5
:1003600040E0534950392068884201D1801539E076
:100370004F493C392068884201D1801432E04C4911
:1003800028392068884202D14FF480302AE0484959
:1003900014392068884202D14FF4801022E0444989
:1003A0002068884201D140041CE04249206888420C
:1003B00001D1012016E03F4914312068884201D163
:1003C00010200FE03B4928312068884201D1801578
:1003D00008E038493C312068884201D1801401E0AE
:1003E0004FF480303349091F086051E030497839B3
:1003F0002068884201D1012047E02D4964392068F6
:10040000884201D1102040E02949503920688842B3
:1004100001D1801539E026493C392068884201D154
:10042000801432E0224928392068884202D14FF4F2
:1004300080302AE01E4914392068884202D14FF4E6
:10044000801022E01A492068884201D140041CE053
:1004500018492068884201D1012016E0154914315D
:100460002068884201D110200FE01249283120680D
:10047000884201D1801508E00E493C31206888424D
:1004800001D1801401E04FF480300949803948607F
:10049000012084F8210000BF002084F8200000BF64
:1004A000606B10B12046616B8847284670BD000024
:1004B00080000240080402402DE9F847034600246A
:1004C000002000258446002700226EE14FF001083D
:1004D00008FA02F4D1F8008008EA0400A0427DD1B5
:1004E000DFF8D0A2D1F80480A8EB0A09D0453AD0B1
:1004F00014DCB8F1030F50D009DCB8F1000F31D093
:10050000B8F1010F1CD0B8F1020F49D120E0B8F1C9
:10051000110F18D0B8F1120F42D11EE0B9F5881FA3
:1005200025D006DCB9F5803F20D0B9F5801F37D142
:100530001AE0B9F5001F18D0B9F5041F30D117E043
:10054000D1F80CC02DE0D1F80C8008F1040C28E0A3
:10055000D1F80C8008F1080C23E0D1F80C8008F1E8
:100560000C0C1EE000BF00BF00BF00BF00BF00BFFB
:10057000D1F80880B8F1000F02D14FF0040C0BE065
:10058000D1F80880B8F1010F03D14FF0080C1C61BD
:1005900002E04FF0080C5C6103E04FF0000C00E05B
:1005A00000BF00BFFF2801D8984601E003F104080E
:1005B0004646FF2802D84FEA820803E0A2F1080865
:1005C0004FEA88084746D6F800804FF00F0909FA2D
:1005D00007F928EA09080CFA07F900E088E048EA78
:1005E0000908C6F80080D1F8048008F08058B8F1F6
:1005F000805F7DD100BFDFF8C081D8F8188048F057
:100600000108DFF8B491C9F81880C846D8F81880F6
:1006100008F00108CDF8008000BF00BF4FEAB938EC
:100620004FEA920958F829504FEA82784FEA187930
:100630004FF00F0808FA09F825EA0805DFF87C8171
:10064000434502D14FF0000816E0DFF874814345BE
:1006500002D14FF001080FE0DFF86881434502D175
:100660004FF0020808E0DFF86081434502D14FF007
:10067000030801E04FF004084FEA82794FEA197944
:1006800008FA09F848EA0505DFF840814FEA9209BF
:1006900048F82950D1F8048008F48038B8F5803F34
:1006A0000AD1DFF82C81D8F8008048EA0008DFF88A
:1006B0002091C9F8008009E0DFF81481D8F80080A3
:1006C00028EA0008DFF80891C9F80080D1F8048012
:1006D00008F40038B8F5003F10D1DFF8F48008F1D5
:1006E0000408D8F8008048EA0008DFF8E49000E049
:1006F0005AE009F10409C9F800800DE0DFF8D08064
:1007000008F10408D8F8008028EA0008DFF8C09053
:1007100009F10409C9F80080D1F8048008F48018B0
:10072000B8F5801F0ED1DFF8A88008F10808D8F8C6
:10073000008048EA0008DFF8989009F10809C9F834
:1007400000800DE0DFF8888008F10808D8F8008004
:1007500028EA0008DFF8789009F10809C9F8008054
:10076000D1F8048008F40018B8F5001F0ED1DFF8A6
:10077000608008F10C08D8F8008048EA0008DFF82B
:10078000509009F10C09C9F800800DE0DFF84080B5
:1007900008F10C08D8F8008028EA0008DFF830904B
:1007A00009F10C09C9F80080521C102AFFF48EAE22
:1007B000BDE8F88700001110001002400008014059
:1007C000000C0140001001400014014008000140ED
:1007D00000040140C2684A40C26070470AB101612A
:1007E00001E00B0403617047014800687047000096
:1007F00018000020034800680349097808440149AB
:1008000008607047180000202000002010B508483C
:10081000006840F0100006490860032000F0D0F89E
:100820000F2000F007F800F02BF8002010BD0000AA
:100830000020024070B504460E4800784FF47A71EB
:10084000B1FBF0F00C490968B1FBF0F5284600F067
:100850000FFD08B1012070BD102C07D200222146E7
:10086000501E00F06EF80548046001E00120F2E738
:100870000020F0E720000020240000201C000020C1
:1008800008B500BF2648806940F00100244988610E
:100890000846806900F00100009000BF00BF00BF63
:1008A0000846C06940F08050C8610846C06900F041
:1008B0008050009000BF00BF032000F081F80022AC
:1008C00011466FF00B0000F03CF8002211466FF06B
:1008D0000A0000F036F8002211466FF0090000F01F
:1008E00030F800221146501F00F02BF8002211466C
:1008F000101F00F026F800220F21901E00F021F8B2
:1009000000220F21501E00F01CF800BF0549486866
:1009100020F0E06040F08060486000BF08BD00004B
:10092000001002400000014000BF00F01F02012142
:1009300091404209920002F1E022C2F8001100BF8A
:1009400070472DE9F05F80460D461646002700F0FF
:10095000CBFE074639462A46334601F00700C0F170
:10096000070ABAF1040F02D94FF0040A01E0C0F1FE
:10097000070AD14600F1040ABAF1070F02D24FF07C
:10098000000A01E0A0F1030AD4464FF0010A0AFA76
:1009900009FAAAF1010A0AEA020A0AFA0CFA4FF065
:1009A000010B0BFA0CFBABF1010B0BEA030B4AEA50
:1009B0000B042146404600F09FFEBDE8F09F00007A
:1009C00000BF00F00702064B19684FF6FF031940FD
:1009D000044B0B4343EA0221014B196000BF7047EF
:1009E0000CED00E00000FA0570B504460D46002647
:1009F0006248006800F00700A8420ED25F48006815
:100A000020F0070028435D4908600846006800F0B0
:100A10000700A84201D0012070BD207800F002003C
:100A2000022807D15648406820F0F000A16808432A
:100A300053494860207800F0010000285DD06068CC
:100A4000012806D14E48006800F4003090B901201A
:100A5000E2E76068022806D14948006800F00070AB
:100A600040B90120D8E74648006800F0020008B904
:100A70000120D1E74248406820F003006168084344
:100A80003F494860FFF7B0FE06466068012810D174
:100A900008E0FFF7A9FE801B41F28831884201D9A6
:100AA0000320B9E73648406800F00C000428F0D174
:100AB00023E06068022810D108E0FFF795FE801B54
:100AC00041F28831884201D90320A5E72C484068CB
:100AD00000F00C000828F0D10FE008E0FFF784FEDA
:100AE000801B41F28831884201D9032094E72448D1
:100AF000406800F00C000028F0D12048006800F0A9
:100B00000700A8420ED91D48006820F007002843BE
:100B10001A4908600846006800F00700A84201D0A2
:100B2000012079E7207800F00400042807D1144858
:100B3000406820F4E060E16808431149486020788B
:100B400000F00800082808D10D48406820F46050E3
:100B5000216940EAC1000A49486000F03DF80849AF
:100B60004968C1F30311074A515CC840064908604F
:100B70000F20FFF75FFE00204EE70000002002403C
:100B800000100240402B00082400002001480068AB
:100B9000704700002400002000B5FFF7F7FF04496C
:100BA0004968C1F30221034A515CC84000BD0000FE
:100BB00000100240502B000800B5FFF7E7FF044982
:100BC0004968C1F3C221034A515CC84000BD00001E
:100BD00000100240502B00082DE9F04F8BB03CA2D2
:100BE000D2E901311068D268CDE908310A92079044
:100BF0003BA3D3E90020D3E9021304AC0BC4039256
:100C00004FF00009CB46CA46002400200290019014
:100C100000903748D0F8049009F00C0000284FD01D
:100C2000042802D008284AD102E0324802904AE063
:100C300007A8C9F38341445C09F48030C0B32C4851
:100C4000C06A00F00F0003A911F800B02848C06A7C
:100C500000F4803008B32648C06AC0F30310401C7B
:100C600001902348C06AC0F30320801C00900198C3
:100C7000A0FB0B5006461F490098A1FB0021002352
:100C8000A2FB047C01FB04C102FB03112A4633468C
:100C90003846FFF7C5FA824603E016486043B0FBCA
:100CA000FBFA9DF82900A04206D14FEA5A0A03E058
:100CB000FFE7114804FB00FACDF808A003E000BFED
:100CC0000E48029000BF00BF02980BB0BDE8F08F45
:100CD000000004050607080900000000000D0000E0
:100CE0000102030405060708090A0B0C0D0E0F107C
:100CF0000010024040787D0100093D0000127A009A
:100D0000F8B504460025207800F00100002878D0CE
:100D1000FD48406800F00C0004280CD0FA484068F8
:100D200000F00C00082811D1F748406800F480302A
:100D3000B0F5803F0AD1F448006800F40030002884
:100D40005FD0A06800285CD10120F8BD00BFA0687A
:100D5000B0F5803F06D1EC48006840F48030EA49A5
:100D6000086028E0A06858B9E748006820F480309F
:100D7000E54908600846006820F4802008601AE011
:100D8000A068B0F5A02F0BD1DF48006840F48020A8
:100D9000DD4908600846006840F4803008600AE0D9
:100DA000D948006820F48030D749086008460068B8
:100DB00020F48020086000BFA06888B1FFF714FD10
:100DC000054606E0FFF710FD401B642801D903200B
:100DD000BBE7CD48006800F400300028F2D010E0F6
:100DE000FFF702FD054606E0FFF7FEFC401B642806
:100DF00001D90320A9E7C448006800F400300028A6
:100E0000F2D1207800F00200022857D1BE48406895
:100E100000F00C0050B1BC48406800F00C000828FD
:100E200018D1B948406800F4803098B9B6480068D5
:100E300000F0020020B16069012801D0012084E7A0
:100E4000B148006820F0F800A16940EAC100AE494D
:100E5000086033E06069E8B10120AC490860FFF741
:100E6000C3FC054606E0FFF7BFFC401B022801D982
:100E700003206AE7A448006800F002000028F2D0CE
:100E8000A148006820F0F800A16940EAC1009E492D
:100E9000086013E000209D490860FFF7A5FC0546A7
:100EA00006E0FFF7A1FC401B022801D903204CE714
:100EB0009548006800F002000028F2D1207800F088
:100EC000080008282DD1E069B8B1012090490860D8
:100ED000FFF78AFC054606E0FFF786FC401B022868
:100EE00001D9032031E78848406A00F00200002859
:100EF000F2D0012000F014FC13E0002084490860C7
:100F0000FFF772FC054606E0FFF76EFC401B022867
:100F100001D9032019E77C48406A00F0020000284C
:100F2000F2D1207800F00400042873D1002676481E
:100F3000C06900F0805070B900BF7348C06940F0CC
:100F400080507149C8610846C06900F08050009027
:100F500000BF00BF01266F48006800F48070B0B980
:100F60006C48006840F480706A490860FFF73CFCF8
:100F7000054606E0FFF738FC401B642801D9032032
:100F8000E3E66448006800F480700028F2D000BFF7
:100F90002069012806D15C48006A40F001005A49E6
:100FA000086227E0206958B95748006A20F001001C
:100FB000554908620846006A20F00400086219E0FA
:100FC000206905280BD15048006A40F004004E49C2
:100FD00008620846006A40F0010008620AE04A48D8
:100FE000006A20F00100484908620846006A20F0C3
:100FF0000400086200BF2069A0B1FFF7F5FB0546B9
:1010000009E0FFF7F1FB401B41F28831884202D929
:1010100003209AE622E03C48006A00F00200002823
:10102000EFD012E0FFF7E0FB054608E0FFF7DCFB3E
:10103000401B41F28831884201D9032085E63248BD
:10104000006A00F002000028F0D1012E05D12E48E0
:10105000C06920F080502C49C86100BFE06AA0B38D
:101060002948406800F48030B0F5803F0ED1264812
:10107000406800F00C00082808D12348C06A00F43A
:101080008030B0F5803F01D101205EE6E06A0228A1
:1010900050D11D48006800F0805040B11A48C06A25
:1010A00000F0F001606B814201D001204DE600208C
:1010B00016498866FFF798FB054607E0FFF794FBA3
:1010C000401B642802D903203FE64DE00E4800682B
:1010D00000F000600028F1D10B48C06A20F0F00059
:1010E000616B08430849C8620846C06A20F4706012
:1010F000216B08430449C862012004498866FFF750
:1011000073FB05460FE00000001002400000424261
:101110008004424200700040FFF766FB401B6428D9
:1011200001D9032011E64648006800F0006000285D
:10113000F2D019E04248C06A20F480304049C862C9
:10114000002040498866FFF74FFB054606E0FFF7A1
:101150004BFB401B642801D90320F6E538480068A2
:1011600000F000600028F2D1206AE0B33448406803
:1011700000F00C0008285ED0206A022846D100202A
:1011800030490866FFF730FB054606E0FFF72CFB09
:10119000401B022801D90320D7E52948006800F048
:1011A00000700028F2D1606AB0F5803F0DD124486C
:1011B000C06A616808432249C8620846C06A20F0D4
:1011C0000F00E16808431E49C862D4E909010843D9
:1011D0001B49496821F474110843194948600120EA
:1011E0001849086600E028E0FFF7FEFA054606E029
:1011F000FFF7FAFA401B022801D90320A5E51048A1
:10120000006800F000700028F2D016E000200D49C0
:101210000866FFF7E9FA054606E0FFF7E5FA401B26
:10122000022801D9032090E50548006800F000700D
:101230000028F2D101E0012087E5002085E50000CB
:101240000010024000004242042808D14FF0E02183
:10125000096941F004014FF0E022116107E04FF00D
:10126000E021096921F004014FF0E022116170478B
:1012700070B504462546681EB0F1807F01D3012079
:101280000FE0681E4FF0E02148610F214FF0FF3062
:1012900000F032FA00204FF0E02188610720086159
:1012A000002070BD704700002DE9F047044620681B
:1012B00005682068C668206847694FF00008C14685
:1012C00005F00F08B8F1000F0AD105F0200038B181
:1012D00006F0200020B1204600F01EFBBDE8F0879C
:1012E000B8F1000F6DD007F0010018B906F4907046
:1012F000002866D005F0010030B106F4807018B106
:10130000E06B40F00100E06305F0040030B107F04D
:10131000010018B1E06B40F00200E06305F002004C
:1013200030B107F0010018B1E06B40F00400E06359
:1013300005F0080030B107F0010018B1E06B40F093
:101340000800E063E06B68B305F0200028B106F008
:10135000200010B1204600F0DFFA20684069C0F399
:101360008019E06B00F0080010B9B9F1000F22D02D
:10137000204600F0B1FA2068406900F04000B0B1AA
:101380002068406920F0400021684861606B50B1DE
:101390001748616B4863606BFEF7BAFF10B1606B72
:1013A000416B88470CE02046FFF77CFF08E02046B1
:1013B000FFF778FF04E02046FFF774FF0020E063AA
:1013C0008CE705F0800030B106F0800018B12046AF
:1013D00000F0DAFB82E705F0400030B106F0400093
:1013E00018B1204600F088FA78E700BF76E70000E1
:1013F000C518000810B504460CB9012010BDA0693D
:1014000000B100E000BF94F8390028B9002084F84A
:101410003800204600F028F8242084F8390020689D
:10142000C06820F400502168C860204600F0C8FA67
:101430002068006920F490402168086120684069B4
:1014400020F02A00216848612068C06840F40050FC
:101450002168C8600020E063202084F8390084F807
:101460003A000020CAE7000010B586B004461849CB
:101470002068884229D100BF1648806940F4804026
:10148000144988610846806900F48040019000BFDB
:1014900000BF48150290022003900320059002A986
:1014A0000D48FFF709F84FF4806002900020039088
:1014B000049002A90848FEF7FFFF0022052125201D
:1014C000FFF73FFA2520FFF72FFA06B010BD000006
:1014D00000380140001002400008014010B50346EA
:1014E00093F83A0020282FD101B10AB9012010BD8C
:1014F00000BF93F83800012801D10220F7E701204E
:1015000083F8380000BF99629A85DA850020D86395
:10151000222083F83A0000BF002083F8380000BF83
:101520001868C06840F480701C68E0601868406902
:1015300040F001001C6860611868C06840F020003D
:101540001C68E0600020D2E70220D0E710B5044616
:10155000194884422ED1194800781949194A12783D
:10156000885418480078401C1649087014480078C0
:10157000AA281AD1124840785A2816D11048C07AA1
:101580000C300978884210D1002005E00C49095C34
:101590000D4A1154411CC8B20A4909788842F5DB4A
:1015A00000F042FB0020074908700122034902486D
:1015B000FFF794FF10BD0000880000200900002004
:1015C0002C01002008000020C800002010B50346B0
:1015D00093F83900202823D101B10AB9012010BDA8
:1015E00000BF93F83800012801D10220F7E701205D
:1015F00083F8380000BF19629A84DA840020D86327
:10160000212083F8390000BF002083F8380000BF94
:101610001868C06840F080001C68E0600020DEE7C9
:101620000220DCE7704700BFFEE7000000B585B090
:1016300000BF1648806940F00400144988610846DC
:10164000806900F00400009000BF00BF00BF0846A2
:10165000806940F0200088610846806900F0200021
:10166000009000BF00BF00229C210948FFF7B6F898
:101670009C20019001200290002003900220049001
:1016800001A90348FEF718FF05B000BD0010024095
:101690000014014010B50C480C4908604FF4165076
:1016A0004860002109488160C16001610C214161ED
:1016B00000218161C161FFF79DFE20B14FF485716A
:1016C00003A000F09FFA10BD003801408800002000
:1016D0002E2E2F5372632F6D61696E2E63000000F2
:1016E00000BFFEE77047000002480068C0F3022018
:1016F000704700000CED00E010B5002807DA0A077B
:10170000140E054A00F00F031B1FD45403E00A0710
:10171000130E024A135410BD18ED00E000E400E07F
:1017200008B508490968C9084FF47A72B1FBF2F1AB
:101730004143009100BF00BF00994A1E009200295A
:10174000F9D108BD2400002001220D490D48FFF702
:10175000C5FE00BF4FF4FA7000F01DFB04210A48DB
:10176000FFF738F808210848FFF734F81021064839
:10177000FFF730F880210448FFF72CF8EAE7000073
:1017800009000020880000200014014000BF4FF431
:10179000167000F000FB034800780528F7D000F031
:1017A00057FAF4E71500002010B5FFF723F800F012
:1017B00003FB10BD10B594B0012006900004089002
:1017C0000420099001200B900004079002200E9045
:1017D000C1030F914FF4E011109111904FF4C061CB
:1017E00012914021139106A8FFF78AFA18B1DB2164
:1017F00016A000F007FA0F200190022002900020AE
:1018000003904FF48060049000200590022101A80D
:10181000FFF7EAF818B1E9210CA000F0F3F9FFF79F
:10182000B5F94FF47A71B0FBF1F42046FFF720FDD3
:101830000420FFF709FD01200849086700220F2155
:10184000801EFFF77EF814B010BD00002E2E2F531F
:1018500072632F6D61696E2E6300000000004242CA
:101860001448006840F001001249086008464068CA
:10187000114908400F494860084600680F49084070
:101880000C4908600846006820F48020086008467B
:10189000406820F4FE0048600846006820F0A05030
:1018A00008604FF47F0088600020C862C8030449C4
:1018B00008607047001002400000FFF0FFFFF6FED6
:1018C00008ED00E070B505466C6A0020E085E08414
:1018D0002046FFF7E7FC70BD0168C96821F49071EC
:1018E0000268D1600168496921F001010268516113
:1018F000202180F83A10704710B504462068C0686F
:1019000020F040002168C860202084F8390020467B
:10191000FFF788FE002010BD70B5044694F83A0029
:1019200022284AD1A068B0F5805F13D1A56A20694A
:1019300040B920684068C0F308002880A06A801C75
:10194000A06219E020684068C0B22880A06A401CEC
:10195000A06211E0206938B920684068C1B2A26A6B
:10196000501CA062117007E02068406800F07F0101
:10197000A26A501CA0621170E08D401E80B2E0850A
:10198000C8B92068C06820F020002168C8602068BD
:10199000C06820F480702168C8602068406920F029
:1019A000010021684861202084F83A002046FFF7B2
:1019B000CDFD002070BD0020FCE70220FAE700000A
:1019C0002DE9F041044600252068006920F44050CC
:1019D000E1680843216808612169A06808436169DA
:1019E000084305432068C06841F20C6188432843DE
:1019F0002168C8602068406920F44070A1690843EC
:101A0000216848615F49206888425CD1FFF7D4F8BB
:101A100000EBC00101EB001061688900B0FBF1F63A
:101A2000FFF7CAF800EBC00101EB00106168890004
:101A3000B0FBF1F06421B0FBF1F000EBC00101EB71
:101A40000010A6EB8000322101EB00106421B0FBF6
:101A5000F1F000F0F006FFF7AFF800EBC00101EB8A
:101A6000001061688900B0FBF1F06421B0FBF1F077
:101A700006EB0016FFF7A0F800EBC00101EB001029
:101A800061688900B0FBF1F7FFF796F800EBC00141
:101A900001EB001061688900B0FBF1F06421B0FB3C
:101AA000F1F000EBC00101EB0010A7EB8000322148
:101AB00001EB00106421B0FBF1F000F00F003044A6
:101AC000216888605BE0FFF767F800EBC00101EB7D
:101AD000001061688900B0FBF1F6FFF75DF800EBDC
:101AE000C00101EB001061688900B0FBF1F06421D6
:101AF000B0FBF1F000EBC00101EB0010A6EB8000A1
:101B0000322101EB00106421B0FBF1F000F0F0068F
:101B1000FFF742F800EBC00101EB0010616889009B
:101B2000B0FBF1F06421B0FBF1F006EB0016FFF71B
:101B300033F800EBC00101EB001061688900B0FBD5
:101B4000F1F7FFF729F800EBC00101EB0010616825
:101B50008900B0FBF1F06421B0FBF1F000EBC001B3
:101B600001EB0010A7EB8000322101EB0010642193
:101B7000B0FBF1F000F00F00304421688860BDE850
:101B8000F081000000380140014691F83900212819
:101B90002CD18868B0F5805F0FD10A6A1088C0F335
:101BA00008000B685860086918B9086A801C086248
:101BB00009E0086A401C086205E00B6A581C0862CC
:101BC00018780B685860C88C401E80B2C88458B919
:101BD0000868C06820F080000B68D8600868C0689A
:101BE00040F040000B68D860002070470220FCE7FE
:101BF00010B50248FFF758FB10BD00008800002018
:101C000000BFFEE700BFFEE702E008C8121F08C1E0
:101C1000002AFAD170477047002001E001C1121F6D
:101C2000002AFBD17047000000B50648007840B19B
:101C300004480078052804DC03480178034800F0D4
:101C4000B7FB00BD1500002008000020C8000020E0
:101C500070B5052400200CE0611E01EBC10202EB0F
:101C6000011100EB81012E4A515C2E4A1154411C96
:101C7000C8B26428F0DB601E2B490978884205DB76
:101C80002A490A5C27492A48FFF7A0FC002025E0E2
:101C9000002116E0621E121A521E02EBC20303EB71
:101CA000021201EB82021E4B9B5C621E121A02EBB7
:101CB000C20505EB021201EB8202194DAB544A1C1E
:101CC000D1B26429E6DB611E091A491E174A525C2B
:101CD000611E091A154B5A54411CC8B212490978A1
:101CE000611A491E8142D3DC00200CE000210E4A1B
:101CF000127802EBC20303EB021200EB8202084BE4
:101D00009954411CC8B26428F0DB00200749064AF8
:101D10001278885404480078401C0349087070BD4C
:101D200090010020840300201500002010000020F6
:101D3000880000208AB0FEF769FDFFF73BFDFFF742
:101D400075FCFFF7A7FC14220C4905A8FEF7A9FAB9
:101D5000002105A800F038F8094908601422074955
:101D600014316846FEF79DFA0021684600F02CF811
:101D70000449086000F01BF800BFFEE7182B0008BC
:101D8000000000200400002001460020842901D02A
:101D9000CA1C1044704770B5044625460DB129464B
:101DA00000E00121084600F027FC002070BD10B5BE
:101DB00000F050FC002010BD10B500F077FD0128A8
:101DC00001D000F029FD10BDFEB504460D46B4F962
:101DD0000800FFF7D9FF064602A8CDE90060238A74
:101DE0009AB22B46D4E9001000F030FD012801D052
:101DF0000020FEBD0298FCE72DE9F04105460E46A5
:101E00001C4807681C480068001D00F009FB50B919
:101E10001948006890F82C1001208840174909687B
:101E2000814316480160681C38B936B11248016810
:101E3000091D134800F032FB1AE07C190E480068B7
:101E40004460BC4207D20C480168091D0D48006877
:101E500000F00AFB0CE008480168091D0A48006808
:101E600000F002FB09480068844201D20748046080
:101E7000BDE8F081600000204C00002064000020DC
:101E8000C414002054000020500000207C000020DA
:101E900010B5044600F00EFB23480068401C2249A0
:101EA00008602248006840B920480460084600687D
:101EB00001280DD100F02AF90AE01D48006838B960
:101EC0001A480068C06AE16A884201D8174804606D
:101ED00018480068401C1749086094F82C1001202D
:101EE000884015490968084313490860E16A01EB15
:101EF0008101124A02EB8100211D00F0CFFA00F0AF
:101F000003FB0B48006868B108480068C06AE16AD2
:101F1000884207D24FF0805009490860BFF34F8FC5
:101F2000BFF36F8F10BD00005C0000204C0000204C
:101F3000680000207800002064000020E8130020E2
:101F400004ED00E070B523E000F0C8FB1348006822
:101F500008B9012000E00020054600F05BFDBDB996
:101F600000F0A8FA0D48C068C468201D00F058FAB7
:101F70000B480068401E0A4908600A480068401E75
:101F80000849086000F0C0FA204600F00DF800BFD4
:101F9000044800680028D7D170BD0000B0140020AC
:101FA0005C0000205800002010B50446206B00F0B3
:101FB000C9FA204600F0C6FA10BD000030B54FF453
:101FC0008053174800F007042CB1C01D20F0070013
:101FD000134C041B1B1B0246124C22600024114DA3
:101FE0006C60D018083820F007000F4C20600024E7
:101FF0000D4D2D686C600C4D2D682C601146441AF7
:102000004C60094C24680C60084D4C682C60084DED
:102010004C682C604FF00044064D2C6030BD000031
:10202000E8030020280000203000002038000020B5
:10203000340000203C00002000BFFFF783FF06486B
:1020400000680128F9D94FF0805004490860BFF3B7
:102050004F8FBFF36F8FF0E7E813002004ED00E02F
:102060002DE9FF5F81460F469246DDE90E6B109C1D
:10207000AAF10100216B01EB800828F0070808F0A5
:10208000070008B9012000E0002050B900BF50202F
:1020900080F31188BFF34F8FBFF36F8F00BF00BF76
:1020A000FEE7002507E0795D04F134004155785DD5
:1020B00000B902E06D1C102DF5D300BF00214320B4
:1020C0000155072E00D30626E66266640020A06450
:1020D000201D00F0C6F904F1180000F0C2F92461D7
:1020E000C6F10700A06164620020E06484F850003B
:1020F00049464046039A00F049F92060BBF1000FC1
:1021000001D0CBF80040BDE8FF9F000010B50024CF
:1021100007E004EB84010F4A02EB810000F094F920
:10212000641C072CF5D30C4800F08EF90B4800F026
:102130008BF90B4800F088F90A4800F085F90A4845
:1021400000F082F904480949086004480849086019
:1021500010BD0000E8130020741400208814002033
:102160009C140020B0140020C41400205000002053
:102170005400002010B50146164800E000680368CE
:102180008B42FBD30246436813448B4204D143681D
:102190004C682344436001460A464B681344046874
:1021A000A34211D10C4C03682468A34208D04B68A9
:1021B0000468646823444B6003681B680B6005E097
:1021C000054B1B680B6001E003680B60884200D080
:1021D000016010BD28000020300000200A49096875
:1021E000096809B9012100E0002121B14FF0FF3158
:1021F000064A116006E004490968C968C868034ACC
:102200004168116070470000500000207C000020F1
:102210000E480068401C08B9012000E0002050B9B9
:1022200000BF502080F31188BFF34F8FBFF36F8F33
:1022300000BF00BFFEE700BF502080F31188BFF34E
:102240004F8FBFF36F8F00BF00BFFEE7400000203D
:102250002DE9F04104464FF0000800F03FFA4648EF
:10226000006808B9FFF7AAFE44480068204000282B
:102270006BD1D4B1083404F00700B0B104F007000A
:10228000C0F10800044404F0070008B9012000E090
:10229000002050B900BF502080F31188BFF34F8F4A
:1022A000BFF36F8F00BF00BFFEE7002C4DD0344856
:1022B0000068844249D8334E3046056801E02E4616
:1022C0002D686868A04202D228680028F7D12A4801
:1022D0000068854239D0306800F10808286830600D
:1022E0006868001B102819D92F1907F0070008B9D2
:1022F000012000E0002050B900BF502080F3118879
:10230000BFF34F8FBFF36F8F00BF00BFFEE768685A
:10231000001B78606C603846FFF72CFF184968682E
:102320000968081A164908600846006816490968CD
:10233000884203D212480068134908600F49686850
:102340000968084368600020286000F063FB08F01B
:10235000070008B9012000E0002050B900BF50205C
:1023600080F31188BFF34F8FBFF36F8F00BF00BFA3
:10237000FEE74046BDE8F081300000203C00002030
:10238000340000202800002038000020001F4FF0FB
:1023900080730360001F21F001030360001F034BE3
:1023A00003601438026020387047000011220008D2
:1023B00030B502461748007808B9022030BD6429BC
:1023C00001DD0320FAE713480078012820DB1148DB
:1023D000007805281CDC00200DE0145C0D4B1B78F8
:1023E0005B1E03EBC30505EB031300EB83030A4DF0
:1023F000EC54431CD8B28842EFDB06480078401EFC
:10240000044B1870054B034C247819550120D5E76F
:102410000420D3E7150000209001002010000020C8
:1024200001460A69D1E901309860D1E90103586099
:102430005068884201D188685060002008611068A7
:10244000401E10601068704700F1080141604FF0B5
:10245000FF31816000F10801C1600161002101606C
:10246000704700210161704710B502460B685C1C83
:102470000CB9106907E002F1080000E04068446808
:1024800024689C42FAD944684C604C68A16088601A
:1024900041600A611468641C146010BD42684A609F
:1024A00093688B60936859609160086103685B1C56
:1024B0000360704700BF502080F31188BFF34F8F37
:1024C000BFF36F8F00BF0E480068401C0C490860C6
:1024D00008460068012812D10A480068C0B208B94D
:1024E000012000E0002050B900BF502080F3118887
:1024F000BFF34F8FBFF36F8F00BF00BFFEE7704782
:102500004000002004ED00E00D48006850B900BF15
:10251000502080F31188BFF34F8FBFF36F8F00BF40
:1025200000BFFEE706480068401E054908600846EF
:10253000006820B9002080F3118800BF00BF7047F9
:102540004000002070B506463546002E3FD0083DBD
:102550002C461F4960680968084008B1012000E066
:10256000002050B900BF502080F31188BFF34F8F77
:10257000BFF36F8F00BF00BFFEE7206808B90120DE
:1025800000E0002050B900BF502080F31188BFF355
:102590004F8FBFF36F8F00BF00BFFEE70C4960682D
:1025A0000968084098B1206888B9094960680968D5
:1025B0008843606000F092F8064960680968084442
:1025C000044908602046FFF7D5FD00F023FA70BDEE
:1025D0003C00002034000020064800684FF47A7167
:1025E000B0FBF1F0401E4FF0E02148610720086188
:1025F000704700002400002070B504460025D4B1C7
:102600001248006808B9012000E0002050B900BF5E
:10261000502080F31188BFF34F8FBFF36F8F00BF3F
:1026200000BFFEE700F05AF800212046FFF7E4FB68
:1026300000F0F0F905463DB94FF0805004490860BC
:10264000BFF34F8FBFF36F8F70BD00008400002079
:1026500004ED00E01CB51A4800210B464022CDE9EC
:10266000001018A1194800F0F1F80446012C15D10A
:1026700000BF502080F31188BFF34F8FBFF36F8FDF
:1026800000BF4FF0FF301249086001201149086077
:1026900000201149086000F06FF810E0601C08B1DC
:1026A000012000E0002050B900BF502080F31188C5
:1026B000BFF34F8FBFF36F8F00BF00BFFEE71CBD9E
:1026C0008000002049444C450000000039200008EB
:1026D0007C000020680000206000002002480068A4
:1026E000401C014908607047840000201D480068B4
:1026F00018B101201C49086032E000201A49086026
:102700001A480068B0FA80F0C0F11F0101EB8100A7
:10271000174A52F8200008B1012000E0002050B90B
:1027200000BF502080F31188BFF34F8FBFF36F8F2E
:1027300000BF00BFFEE701EB81020D4B03EB8200FF
:1027400042685268426000F108024368934202D135
:102750004268526842604268D268064B1A6000BF05
:1027600070470000840000207000002064000020FA
:10277000E81300204C0000201CB5224801460978CF
:102780000191FF21024611700146097800919DF8E0
:10279000001001F050011C4A117007211B4A116002
:1027A00009E01A490968491E184A11609DF800108D
:1027B0004906090E00919DF8001001F08001802962
:1027C000EFD0124909680902104A116011460988C0
:1027D00001F4E06111600B4A019911700C48006826
:1027E00040F470000A4908600846006840F07040F4
:1027F0000860FFF7F1FE002006490860FDF7C4FC01
:1028000000201CBD00E400E044000020480000203F
:1028100020ED00E04000002010B500BF502080F304
:102820001188BFF34F8FBFF36F8F00BF00F04EF8DA
:1028300018B14FF080500449086000BF002080F3B9
:10284000118800BF10BD000004ED00E02DE9FF4F2E
:1028500085B0804689461746DDE912ABB800FFF720
:10286000F7FC064656B15420FFF7F2FC04460CB1C3
:10287000266304E03046FFF765FE00E000247CB1EB
:102880000020CDE900ABCDE902403A46494640463A
:10289000089BFFF7E5FB2046FFF7FAFA012501E068
:1028A0004FF0FF35284609B0BDE8F08F05490968AB
:1028B00009B9012005E00449096809B9022000E0CE
:1028C0000020704768000020840000202DE9F041BE
:1028D0004FF0000844480068002877D1434800685A
:1028E000451C4248056015BB41480068006808B9AE
:1028F000012000E0002050B900BF502080F3118873
:10290000BFF34F8FBFF36F8F00BF00BFFEE73848A4
:102910000768384800683649086036480760364816
:102920000068401C34490860FFF758FC00BF33487A
:10293000006885423CD300BF2D480068006808B994
:10294000012000E0002020B14FF0FF302B4908604B
:102950002DE027480068C068C4686668B54202D2A6
:102960002648066023E0201DFFF75AFDA06A18B133
:1029700004F11800FFF754FD94F82C100120884052
:102980001F49096808431E490860E16A01EB81019B
:102990001C4A02EB8100211DFFF780FD1A49E06A05
:1029A0000968C96A8842C7D34FF00108C4E700BF6D
:1029B00015480068C06A00EB8000124951F82000F9
:1029C000012801D94FF0010805E0FFE70F48006832
:1029D000401C0E4908600E48006808B14FF001081D
:1029E0004046BDE8F0810000840000206000002027
:1029F0005000002054000020740000207C000020C3
:102A000064000020E81300204C0000206C0000202F
:102A10007000002070B5002400263648006850B9C8
:102A200000BF502080F31188BFF34F8FBFF36F8F2B
:102A300000BF00BFFEE7FFF73DFD2E480068401EC7
:102A40002C4908600846006800284FD12A480068D1
:102A500000284BD024E02948C068C46804F118005D
:102A6000FFF7DEFC201DFFF7DBFC94F82C100120A3
:102A7000884023490968084321490860E16A01EB5D
:102A80008101204A02EB8100211DFFF707FD1E494D
:102A9000E06A0968C96A884202D301201B490860BC
:102AA0001648006808B9012000E000200028D2D0B4
:102AB0000CB1FFF793FB1648056865B100BFFFF73F
:102AC00005FF10B10120114908606D1E002DF6D1DF
:102AD00000200F4908600D48006838B10126300712
:102AE0000C490860BFF34F8FBFF36F8FFFF70CFDEA
:102AF000304670BD840000205C0000209C14002043
:102B000064000020E81300204C000020700000202A
:102B10006C00002004ED00E0582B00084917000865
:102B2000000000000000000080000000642B00088E
:102B30008D170008000000000000000040000000A9
:102B4000000000000000000001020304060708095D
:102B5000000000000102030464656661756C745432
:102B600061736B006D795461736B3032756172748F
:102B700000000000942B00080000002088000000E6
:102B8000081C00081C2C00088800002050180000B9
:102B9000181C0008000000000000000000000000F9
:102BA0000000000000000000000500000000000020
:102BB000100000000100000000A24A040000000014
:102BC0000000000000000000000000000000000005
:102BD00000000000AAAAAAAA00000000000000004D
:102BE00000000000000000000000000000000000E5
:102BF00000000000000000000000000000000000D5
:102C000000000000000000000000000000000000C4
:0C2C1000000000000000000000000000B8
:04000005080001519D
:00000001FF
